{
  "contractName": "FileStorage",
  "abi": [
    {
      "inputs": [],
      "payable": false,
      "stateMutability": "nonpayable",
      "type": "constructor"
    },
    {
      "anonymous": false,
      "inputs": [
        {
          "indexed": true,
          "internalType": "address",
          "name": "owner",
          "type": "address"
        },
        {
          "indexed": true,
          "internalType": "address",
          "name": "approved",
          "type": "address"
        },
        {
          "indexed": true,
          "internalType": "uint256",
          "name": "tokenId",
          "type": "uint256"
        }
      ],
      "name": "Approval",
      "type": "event"
    },
    {
      "anonymous": false,
      "inputs": [
        {
          "indexed": true,
          "internalType": "address",
          "name": "owner",
          "type": "address"
        },
        {
          "indexed": true,
          "internalType": "address",
          "name": "operator",
          "type": "address"
        },
        {
          "indexed": false,
          "internalType": "bool",
          "name": "approved",
          "type": "bool"
        }
      ],
      "name": "ApprovalForAll",
      "type": "event"
    },
    {
      "anonymous": false,
      "inputs": [
        {
          "indexed": true,
          "internalType": "address",
          "name": "from",
          "type": "address"
        },
        {
          "indexed": true,
          "internalType": "address",
          "name": "to",
          "type": "address"
        },
        {
          "indexed": true,
          "internalType": "uint256",
          "name": "tokenId",
          "type": "uint256"
        }
      ],
      "name": "Transfer",
      "type": "event"
    },
    {
      "constant": false,
      "inputs": [
        {
          "internalType": "address",
          "name": "to",
          "type": "address"
        },
        {
          "internalType": "uint256",
          "name": "tokenId",
          "type": "uint256"
        }
      ],
      "name": "approve",
      "outputs": [],
      "payable": false,
      "stateMutability": "nonpayable",
      "type": "function"
    },
    {
      "constant": true,
      "inputs": [
        {
          "internalType": "address",
          "name": "owner",
          "type": "address"
        }
      ],
      "name": "balanceOf",
      "outputs": [
        {
          "internalType": "uint256",
          "name": "",
          "type": "uint256"
        }
      ],
      "payable": false,
      "stateMutability": "view",
      "type": "function"
    },
    {
      "constant": true,
      "inputs": [
        {
          "internalType": "uint256",
          "name": "tokenId",
          "type": "uint256"
        }
      ],
      "name": "getApproved",
      "outputs": [
        {
          "internalType": "address",
          "name": "",
          "type": "address"
        }
      ],
      "payable": false,
      "stateMutability": "view",
      "type": "function"
    },
    {
      "constant": true,
      "inputs": [
        {
          "internalType": "address",
          "name": "owner",
          "type": "address"
        },
        {
          "internalType": "address",
          "name": "operator",
          "type": "address"
        }
      ],
      "name": "isApprovedForAll",
      "outputs": [
        {
          "internalType": "bool",
          "name": "",
          "type": "bool"
        }
      ],
      "payable": false,
      "stateMutability": "view",
      "type": "function"
    },
    {
      "constant": true,
      "inputs": [],
      "name": "name",
      "outputs": [
        {
          "internalType": "string",
          "name": "",
          "type": "string"
        }
      ],
      "payable": false,
      "stateMutability": "view",
      "type": "function"
    },
    {
      "constant": true,
      "inputs": [
        {
          "internalType": "uint256",
          "name": "tokenId",
          "type": "uint256"
        }
      ],
      "name": "ownerOf",
      "outputs": [
        {
          "internalType": "address",
          "name": "",
          "type": "address"
        }
      ],
      "payable": false,
      "stateMutability": "view",
      "type": "function"
    },
    {
      "constant": false,
      "inputs": [
        {
          "internalType": "address",
          "name": "from",
          "type": "address"
        },
        {
          "internalType": "address",
          "name": "to",
          "type": "address"
        },
        {
          "internalType": "uint256",
          "name": "tokenId",
          "type": "uint256"
        }
      ],
      "name": "safeTransferFrom",
      "outputs": [],
      "payable": false,
      "stateMutability": "nonpayable",
      "type": "function"
    },
    {
      "constant": false,
      "inputs": [
        {
          "internalType": "address",
          "name": "from",
          "type": "address"
        },
        {
          "internalType": "address",
          "name": "to",
          "type": "address"
        },
        {
          "internalType": "uint256",
          "name": "tokenId",
          "type": "uint256"
        },
        {
          "internalType": "bytes",
          "name": "_data",
          "type": "bytes"
        }
      ],
      "name": "safeTransferFrom",
      "outputs": [],
      "payable": false,
      "stateMutability": "nonpayable",
      "type": "function"
    },
    {
      "constant": false,
      "inputs": [
        {
          "internalType": "address",
          "name": "to",
          "type": "address"
        },
        {
          "internalType": "bool",
          "name": "approved",
          "type": "bool"
        }
      ],
      "name": "setApprovalForAll",
      "outputs": [],
      "payable": false,
      "stateMutability": "nonpayable",
      "type": "function"
    },
    {
      "constant": true,
      "inputs": [
        {
          "internalType": "bytes4",
          "name": "interfaceId",
          "type": "bytes4"
        }
      ],
      "name": "supportsInterface",
      "outputs": [
        {
          "internalType": "bool",
          "name": "",
          "type": "bool"
        }
      ],
      "payable": false,
      "stateMutability": "view",
      "type": "function"
    },
    {
      "constant": true,
      "inputs": [],
      "name": "symbol",
      "outputs": [
        {
          "internalType": "string",
          "name": "",
          "type": "string"
        }
      ],
      "payable": false,
      "stateMutability": "view",
      "type": "function"
    },
    {
      "constant": true,
      "inputs": [
        {
          "internalType": "uint256",
          "name": "index",
          "type": "uint256"
        }
      ],
      "name": "tokenByIndex",
      "outputs": [
        {
          "internalType": "uint256",
          "name": "",
          "type": "uint256"
        }
      ],
      "payable": false,
      "stateMutability": "view",
      "type": "function"
    },
    {
      "constant": true,
      "inputs": [
        {
          "internalType": "address",
          "name": "owner",
          "type": "address"
        },
        {
          "internalType": "uint256",
          "name": "index",
          "type": "uint256"
        }
      ],
      "name": "tokenOfOwnerByIndex",
      "outputs": [
        {
          "internalType": "uint256",
          "name": "",
          "type": "uint256"
        }
      ],
      "payable": false,
      "stateMutability": "view",
      "type": "function"
    },
    {
      "constant": true,
      "inputs": [
        {
          "internalType": "uint256",
          "name": "tokenId",
          "type": "uint256"
        }
      ],
      "name": "tokenURI",
      "outputs": [
        {
          "internalType": "string",
          "name": "",
          "type": "string"
        }
      ],
      "payable": false,
      "stateMutability": "view",
      "type": "function"
    },
    {
      "constant": true,
      "inputs": [],
      "name": "totalSupply",
      "outputs": [
        {
          "internalType": "uint256",
          "name": "",
          "type": "uint256"
        }
      ],
      "payable": false,
      "stateMutability": "view",
      "type": "function"
    },
    {
      "constant": false,
      "inputs": [
        {
          "internalType": "address",
          "name": "from",
          "type": "address"
        },
        {
          "internalType": "address",
          "name": "to",
          "type": "address"
        },
        {
          "internalType": "uint256",
          "name": "tokenId",
          "type": "uint256"
        }
      ],
      "name": "transferFrom",
      "outputs": [],
      "payable": false,
      "stateMutability": "nonpayable",
      "type": "function"
    },
    {
      "constant": false,
      "inputs": [
        {
          "internalType": "string",
          "name": "_file",
          "type": "string"
        }
      ],
      "name": "mint",
      "outputs": [],
      "payable": false,
      "stateMutability": "nonpayable",
      "type": "function"
    },
    {
      "constant": true,
      "inputs": [
        {
          "internalType": "uint256",
          "name": "_tokenId",
          "type": "uint256"
        }
      ],
      "name": "retrieve",
      "outputs": [
        {
          "internalType": "string",
          "name": "",
          "type": "string"
        }
      ],
      "payable": false,
      "stateMutability": "view",
      "type": "function"
    },
    {
      "constant": true,
      "inputs": [
        {
          "internalType": "address",
          "name": "_owner",
          "type": "address"
        }
      ],
      "name": "retrieveByAddress",
      "outputs": [
        {
          "internalType": "string[]",
          "name": "",
          "type": "string[]"
        }
      ],
      "payable": false,
      "stateMutability": "view",
      "type": "function"
    },
    {
      "constant": true,
      "inputs": [],
      "name": "getFiles",
      "outputs": [
        {
          "internalType": "string[]",
          "name": "",
          "type": "string[]"
        }
      ],
      "payable": false,
      "stateMutability": "view",
      "type": "function"
    }
  ],
  "bytecode": "0x60806040523480156200001157600080fd5b506040518060400160405280600b81526020017f46696c6553746f726167650000000000000000000000000000000000000000008152506040518060400160405280600b81526020017f46494c4553544f524147450000000000000000000000000000000000000000008152508181620000986301ffc9a760e01b6200011c60201b60201c565b620000b06380ac58cd60e01b6200011c60201b60201c565b620000c863780e9d6360e01b6200011c60201b60201c565b8160099080519060200190620000e0929190620001f4565b5080600a9080519060200190620000f9929190620001f4565b5062000112635b5e139f60e01b6200011c60201b60201c565b5050505062000318565b63ffffffff60e01b817bffffffffffffffffffffffffffffffffffffffffffffffffffffffff1916141562000188576040517f08c379a00000000000000000000000000000000000000000000000000000000081526004016200017f90620002e5565b60405180910390fd5b6001600080837bffffffffffffffffffffffffffffffffffffffffffffffffffffffff19167bffffffffffffffffffffffffffffffffffffffffffffffffffffffff1916815260200190815260200160002060006101000a81548160ff02191690831515021790555050565b828054600181600116156101000203166002900490600052602060002090601f016020900481019282601f106200023757805160ff191683800117855562000268565b8280016001018555821562000268579182015b82811115620002675782518255916020019190600101906200024a565b5b5090506200027791906200027b565b5090565b620002a091905b808211156200029c57600081600090555060010162000282565b5090565b90565b6000620002b2601c8362000307565b91507f4552433136353a20696e76616c696420696e74657266616365206964000000006000830152602082019050919050565b600060208201905081810360008301526200030081620002a3565b9050919050565b600082825260208201905092915050565b612eed80620003286000396000f3fe608060405234801561001057600080fd5b506004361061012c5760003560e01c8063597f68bb116100ad578063a22cb46511610071578063a22cb4651461037d578063b88d4fde14610399578063c87b56dd146103b5578063d85d3d27146103e5578063e985e9c5146104015761012c565b8063597f68bb1461029f5780636352211e146102cf57806370a08231146102ff5780638f88708b1461032f57806395d89b411461035f5761012c565b806323b872dd116100f457806323b872dd146101e95780632da96d73146102055780632f745c591461022357806342842e0e146102535780634f6ccce71461026f5761012c565b806301ffc9a71461013157806306fdde0314610161578063081812fc1461017f578063095ea7b3146101af57806318160ddd146101cb575b600080fd5b61014b60048036036101469190810190612091565b610431565b60405161015891906129bc565b60405180910390f35b610169610498565b60405161017691906129d7565b60405180910390f35b61019960048036036101949190810190612124565b61053a565b6040516101a69190612933565b60405180910390f35b6101c960048036036101c49190810190612055565b6105bf565b005b6101d361076c565b6040516101e09190612c19565b60405180910390f35b61020360048036036101fe9190810190611f4f565b610779565b005b61020d6107d2565b60405161021a919061299a565b60405180910390f35b61023d60048036036102389190810190612055565b6108bb565b60405161024a9190612c19565b60405180910390f35b61026d60048036036102689190810190611f4f565b610964565b005b61028960048036036102849190810190612124565b610984565b6040516102969190612c19565b60405180910390f35b6102b960048036036102b49190810190611eea565b6109ee565b6040516102c6919061299a565b60405180910390f35b6102e960048036036102e49190810190612124565b610b72565b6040516102f69190612933565b60405180910390f35b61031960048036036103149190810190611eea565b610c24565b6040516103269190612c19565b60405180910390f35b61034960048036036103449190810190612124565b610ce3565b60405161035691906129d7565b60405180910390f35b610367610da1565b60405161037491906129d7565b60405180910390f35b61039760048036036103929190810190612019565b610e43565b005b6103b360048036036103ae9190810190611f9e565b610faf565b005b6103cf60048036036103ca9190810190612124565b61100b565b6040516103dc91906129d7565b60405180910390f35b6103ff60048036036103fa91908101906120e3565b611108565b005b61041b60048036036104169190810190611f13565b6111c8565b60405161042891906129bc565b60405180910390f35b6000806000837bffffffffffffffffffffffffffffffffffffffffffffffffffffffff19167bffffffffffffffffffffffffffffffffffffffffffffffffffffffff1916815260200190815260200160002060009054906101000a900460ff169050919050565b606060098054600181600116156101000203166002900480601f0160208091040260200160405190810160405280929190818152602001828054600181600116156101000203166002900480156105305780601f1061050557610100808354040283529160200191610530565b820191906000526020600020905b81548152906001019060200180831161051357829003601f168201915b5050505050905090565b60006105458261125c565b610584576040517f08c379a000000000000000000000000000000000000000000000000000000000815260040161057b90612b59565b60405180910390fd5b6002600083815260200190815260200160002060009054906101000a900473ffffffffffffffffffffffffffffffffffffffff169050919050565b60006105ca82610b72565b90508073ffffffffffffffffffffffffffffffffffffffff168373ffffffffffffffffffffffffffffffffffffffff16141561063b576040517f08c379a000000000000000000000000000000000000000000000000000000000815260040161063290612bb9565b60405180910390fd5b8073ffffffffffffffffffffffffffffffffffffffff163373ffffffffffffffffffffffffffffffffffffffff16148061067b575061067a81336111c8565b5b6106ba576040517f08c379a00000000000000000000000000000000000000000000000000000000081526004016106b190612ad9565b60405180910390fd5b826002600084815260200190815260200160002060006101000a81548173ffffffffffffffffffffffffffffffffffffffff021916908373ffffffffffffffffffffffffffffffffffffffff160217905550818373ffffffffffffffffffffffffffffffffffffffff168273ffffffffffffffffffffffffffffffffffffffff167f8c5be1e5ebec7d5bd14f71427d1e84f3dd0314c0f7b2291e5b200ac8c7c3b92560405160405180910390a4505050565b6000600780549050905090565b61078333826112ce565b6107c2576040517f08c379a00000000000000000000000000000000000000000000000000000000081526004016107b990612bd9565b60405180910390fd5b6107cd8383836113ac565b505050565b6060600c805480602002602001604051908101604052809291908181526020016000905b828210156108b2578382906000526020600020018054600181600116156101000203166002900480601f01602080910402602001604051908101604052809291908181526020018280546001816001161561010002031660029004801561089e5780601f106108735761010080835404028352916020019161089e565b820191906000526020600020905b81548152906001019060200180831161088157829003601f168201915b5050505050815260200190600101906107f6565b50505050905090565b60006108c683610c24565b8210610907576040517f08c379a00000000000000000000000000000000000000000000000000000000081526004016108fe906129f9565b60405180910390fd5b600560008473ffffffffffffffffffffffffffffffffffffffff1673ffffffffffffffffffffffffffffffffffffffff168152602001908152602001600020828154811061095157fe5b9060005260206000200154905092915050565b61097f83838360405180602001604052806000815250610faf565b505050565b600061098e61076c565b82106109cf576040517f08c379a00000000000000000000000000000000000000000000000000000000081526004016109c690612bf9565b60405180910390fd5b600782815481106109dc57fe5b90600052602060002001549050919050565b6060806109fa83610c24565b604051908082528060200260200182016040528015610a2d57816020015b6060815260200190600190039081610a185790505b509050600080905060008090505b600c80549050811015610b67576000610a5382610b72565b90508573ffffffffffffffffffffffffffffffffffffffff168173ffffffffffffffffffffffffffffffffffffffff161415610b5957600c8281548110610a9657fe5b906000526020600020018054600181600116156101000203166002900480601f016020809104026020016040519081016040528092919081815260200182805460018160011615610100020316600290048015610b345780601f10610b0957610100808354040283529160200191610b34565b820191906000526020600020905b815481529060010190602001808311610b1757829003601f168201915b5050505050848481518110610b4557fe5b602002602001018190525082806001019350505b508080600101915050610a3b565b508192505050919050565b6000806001600084815260200190815260200160002060009054906101000a900473ffffffffffffffffffffffffffffffffffffffff169050600073ffffffffffffffffffffffffffffffffffffffff168173ffffffffffffffffffffffffffffffffffffffff161415610c1b576040517f08c379a0000000000000000000000000000000000000000000000000000000008152600401610c1290612b19565b60405180910390fd5b80915050919050565b60008073ffffffffffffffffffffffffffffffffffffffff168273ffffffffffffffffffffffffffffffffffffffff161415610c95576040517f08c379a0000000000000000000000000000000000000000000000000000000008152600401610c8c90612af9565b60405180910390fd5b610cdc600360008473ffffffffffffffffffffffffffffffffffffffff1673ffffffffffffffffffffffffffffffffffffffff1681526020019081526020016000206113d0565b9050919050565b606080600c8381548110610cf357fe5b906000526020600020018054600181600116156101000203166002900480601f016020809104026020016040519081016040528092919081815260200182805460018160011615610100020316600290048015610d915780601f10610d6657610100808354040283529160200191610d91565b820191906000526020600020905b815481529060010190602001808311610d7457829003601f168201915b5050505050905080915050919050565b6060600a8054600181600116156101000203166002900480601f016020809104026020016040519081016040528092919081815260200182805460018160011615610100020316600290048015610e395780601f10610e0e57610100808354040283529160200191610e39565b820191906000526020600020905b815481529060010190602001808311610e1c57829003601f168201915b5050505050905090565b3373ffffffffffffffffffffffffffffffffffffffff168273ffffffffffffffffffffffffffffffffffffffff161415610eb2576040517f08c379a0000000000000000000000000000000000000000000000000000000008152600401610ea990612a79565b60405180910390fd5b80600460003373ffffffffffffffffffffffffffffffffffffffff1673ffffffffffffffffffffffffffffffffffffffff16815260200190815260200160002060008473ffffffffffffffffffffffffffffffffffffffff1673ffffffffffffffffffffffffffffffffffffffff16815260200190815260200160002060006101000a81548160ff0219169083151502179055508173ffffffffffffffffffffffffffffffffffffffff163373ffffffffffffffffffffffffffffffffffffffff167f17307eab39ab6107e8899845ad3d59bd9653f200f220920489ca2b5937696c3183604051610fa391906129bc565b60405180910390a35050565b610fba848484610779565b610fc6848484846113de565b611005576040517f08c379a0000000000000000000000000000000000000000000000000000000008152600401610ffc90612a19565b60405180910390fd5b50505050565b60606110168261125c565b611055576040517f08c379a000000000000000000000000000000000000000000000000000000000815260040161104c90612b99565b60405180910390fd5b600b60008381526020019081526020016000208054600181600116156101000203166002900480601f0160208091040260200160405190810160405280929190818152602001828054600181600116156101000203166002900480156110fc5780601f106110d1576101008083540402835291602001916110fc565b820191906000526020600020905b8154815290600101906020018083116110df57829003601f168201915b50505050509050919050565b600d81604051611118919061291c565b908152602001604051809103902060009054906101000a900460ff161561113e57600080fd5b60006001600c83908060018154018082558091505090600182039060005260206000200160009091929091909150908051906020019061117f929190611d08565b5003905061118d33826114f5565b6001600d8360405161119f919061291c565b908152602001604051809103902060006101000a81548160ff0219169083151502179055505050565b6000600460008473ffffffffffffffffffffffffffffffffffffffff1673ffffffffffffffffffffffffffffffffffffffff16815260200190815260200160002060008373ffffffffffffffffffffffffffffffffffffffff1673ffffffffffffffffffffffffffffffffffffffff16815260200190815260200160002060009054906101000a900460ff16905092915050565b6000806001600084815260200190815260200160002060009054906101000a900473ffffffffffffffffffffffffffffffffffffffff169050600073ffffffffffffffffffffffffffffffffffffffff168173ffffffffffffffffffffffffffffffffffffffff161415915050919050565b60006112d98261125c565b611318576040517f08c379a000000000000000000000000000000000000000000000000000000000815260040161130f90612ab9565b60405180910390fd5b600061132383610b72565b90508073ffffffffffffffffffffffffffffffffffffffff168473ffffffffffffffffffffffffffffffffffffffff16148061139257508373ffffffffffffffffffffffffffffffffffffffff1661137a8461053a565b73ffffffffffffffffffffffffffffffffffffffff16145b806113a357506113a281856111c8565b5b91505092915050565b6113b7838383611516565b6113c18382611745565b6113cb82826118e3565b505050565b600081600001549050919050565b60006113ff8473ffffffffffffffffffffffffffffffffffffffff166119aa565b61140c57600190506114ed565b60008473ffffffffffffffffffffffffffffffffffffffff1663150b7a02338887876040518563ffffffff1660e01b815260040161144d949392919061294e565b602060405180830381600087803b15801561146757600080fd5b505af115801561147b573d6000803e3d6000fd5b505050506040513d601f19601f8201168201806040525061149f91908101906120ba565b905063150b7a0260e01b7bffffffffffffffffffffffffffffffffffffffffffffffffffffffff1916817bffffffffffffffffffffffffffffffffffffffffffffffffffffffff1916149150505b949350505050565b6114ff82826119bd565b61150982826118e3565b61151281611b6f565b5050565b8273ffffffffffffffffffffffffffffffffffffffff1661153682610b72565b73ffffffffffffffffffffffffffffffffffffffff161461158c576040517f08c379a000000000000000000000000000000000000000000000000000000000815260040161158390612b79565b60405180910390fd5b600073ffffffffffffffffffffffffffffffffffffffff168273ffffffffffffffffffffffffffffffffffffffff1614156115fc576040517f08c379a00000000000000000000000000000000000000000000000000000000081526004016115f390612a59565b60405180910390fd5b61160581611bbb565b61164c600360008573ffffffffffffffffffffffffffffffffffffffff1673ffffffffffffffffffffffffffffffffffffffff168152602001908152602001600020611c79565b611693600360008473ffffffffffffffffffffffffffffffffffffffff1673ffffffffffffffffffffffffffffffffffffffff168152602001908152602001600020611c9c565b816001600083815260200190815260200160002060006101000a81548173ffffffffffffffffffffffffffffffffffffffff021916908373ffffffffffffffffffffffffffffffffffffffff160217905550808273ffffffffffffffffffffffffffffffffffffffff168473ffffffffffffffffffffffffffffffffffffffff167fddf252ad1be2c89b69c2b068fc378daa952ba7f163c4a11628f55a4df523b3ef60405160405180910390a4505050565b600061179d6001600560008673ffffffffffffffffffffffffffffffffffffffff1673ffffffffffffffffffffffffffffffffffffffff16815260200190815260200160002080549050611cb290919063ffffffff16565b905060006006600084815260200190815260200160002054905081811461188a576000600560008673ffffffffffffffffffffffffffffffffffffffff1673ffffffffffffffffffffffffffffffffffffffff168152602001908152602001600020838154811061180a57fe5b9060005260206000200154905080600560008773ffffffffffffffffffffffffffffffffffffffff1673ffffffffffffffffffffffffffffffffffffffff168152602001908152602001600020838154811061186257fe5b9060005260206000200181905550816006600083815260200190815260200160002081905550505b600560008573ffffffffffffffffffffffffffffffffffffffff1673ffffffffffffffffffffffffffffffffffffffff1681526020019081526020016000208054809190600190036118dc9190611d88565b5050505050565b600560008373ffffffffffffffffffffffffffffffffffffffff1673ffffffffffffffffffffffffffffffffffffffff168152602001908152602001600020805490506006600083815260200190815260200160002081905550600560008373ffffffffffffffffffffffffffffffffffffffff1673ffffffffffffffffffffffffffffffffffffffff1681526020019081526020016000208190806001815401808255809150509060018203906000526020600020016000909192909190915055505050565b600080823b905060008111915050919050565b600073ffffffffffffffffffffffffffffffffffffffff168273ffffffffffffffffffffffffffffffffffffffff161415611a2d576040517f08c379a0000000000000000000000000000000000000000000000000000000008152600401611a2490612b39565b60405180910390fd5b611a368161125c565b15611a76576040517f08c379a0000000000000000000000000000000000000000000000000000000008152600401611a6d90612a39565b60405180910390fd5b816001600083815260200190815260200160002060006101000a81548173ffffffffffffffffffffffffffffffffffffffff021916908373ffffffffffffffffffffffffffffffffffffffff160217905550611b0f600360008473ffffffffffffffffffffffffffffffffffffffff1673ffffffffffffffffffffffffffffffffffffffff168152602001908152602001600020611c9c565b808273ffffffffffffffffffffffffffffffffffffffff16600073ffffffffffffffffffffffffffffffffffffffff167fddf252ad1be2c89b69c2b068fc378daa952ba7f163c4a11628f55a4df523b3ef60405160405180910390a45050565b6007805490506008600083815260200190815260200160002081905550600781908060018154018082558091505090600182039060005260206000200160009091929091909150555050565b600073ffffffffffffffffffffffffffffffffffffffff166002600083815260200190815260200160002060009054906101000a900473ffffffffffffffffffffffffffffffffffffffff1673ffffffffffffffffffffffffffffffffffffffff1614611c765760006002600083815260200190815260200160002060006101000a81548173ffffffffffffffffffffffffffffffffffffffff021916908373ffffffffffffffffffffffffffffffffffffffff1602179055505b50565b611c9160018260000154611cb290919063ffffffff16565b816000018190555050565b6001816000016000828254019250508190555050565b600082821115611cf7576040517f08c379a0000000000000000000000000000000000000000000000000000000008152600401611cee90612a99565b60405180910390fd5b600082840390508091505092915050565b828054600181600116156101000203166002900490600052602060002090601f016020900481019282601f10611d4957805160ff1916838001178555611d77565b82800160010185558215611d77579182015b82811115611d76578251825591602001919060010190611d5b565b5b509050611d849190611db4565b5090565b815481835581811115611daf57818360005260206000209182019101611dae9190611db4565b5b505050565b611dd691905b80821115611dd2576000816000905550600101611dba565b5090565b90565b600081359050611de881612e4e565b92915050565b600081359050611dfd81612e65565b92915050565b600081359050611e1281612e7c565b92915050565b600081519050611e2781612e7c565b92915050565b600082601f830112611e3e57600080fd5b8135611e51611e4c82612c61565b612c34565b91508082526020830160208301858383011115611e6d57600080fd5b611e78838284612dfb565b50505092915050565b600082601f830112611e9257600080fd5b8135611ea5611ea082612c8d565b612c34565b91508082526020830160208301858383011115611ec157600080fd5b611ecc838284612dfb565b50505092915050565b600081359050611ee481612e93565b92915050565b600060208284031215611efc57600080fd5b6000611f0a84828501611dd9565b91505092915050565b60008060408385031215611f2657600080fd5b6000611f3485828601611dd9565b9250506020611f4585828601611dd9565b9150509250929050565b600080600060608486031215611f6457600080fd5b6000611f7286828701611dd9565b9350506020611f8386828701611dd9565b9250506040611f9486828701611ed5565b9150509250925092565b60008060008060808587031215611fb457600080fd5b6000611fc287828801611dd9565b9450506020611fd387828801611dd9565b9350506040611fe487828801611ed5565b925050606085013567ffffffffffffffff81111561200157600080fd5b61200d87828801611e2d565b91505092959194509250565b6000806040838503121561202c57600080fd5b600061203a85828601611dd9565b925050602061204b85828601611dee565b9150509250929050565b6000806040838503121561206857600080fd5b600061207685828601611dd9565b925050602061208785828601611ed5565b9150509250929050565b6000602082840312156120a357600080fd5b60006120b184828501611e03565b91505092915050565b6000602082840312156120cc57600080fd5b60006120da84828501611e18565b91505092915050565b6000602082840312156120f557600080fd5b600082013567ffffffffffffffff81111561210f57600080fd5b61211b84828501611e81565b91505092915050565b60006020828403121561213657600080fd5b600061214484828501611ed5565b91505092915050565b600061215983836122a6565b905092915050565b61216a81612dc5565b82525050565b61217981612d51565b82525050565b600061218a82612cc9565b6121948185612d02565b9350836020820285016121a685612cb9565b8060005b858110156121e257848403895281516121c3858261214d565b94506121ce83612cf5565b925060208a019950506001810190506121aa565b50829750879550505050505092915050565b6121fd81612d63565b82525050565b600061220e82612cd4565b6122188185612d13565b9350612228818560208601612e0a565b61223181612e3d565b840191505092915050565b600061224782612cea565b6122518185612d35565b9350612261818560208601612e0a565b61226a81612e3d565b840191505092915050565b600061228082612cea565b61228a8185612d46565b935061229a818560208601612e0a565b80840191505092915050565b60006122b182612cdf565b6122bb8185612d24565b93506122cb818560208601612e0a565b6122d481612e3d565b840191505092915050565b60006122ec602b83612d35565b91507f455243373231456e756d657261626c653a206f776e657220696e646578206f7560008301527f74206f6620626f756e64730000000000000000000000000000000000000000006020830152604082019050919050565b6000612352603283612d35565b91507f4552433732313a207472616e7366657220746f206e6f6e20455243373231526560008301527f63656976657220696d706c656d656e74657200000000000000000000000000006020830152604082019050919050565b60006123b8601c83612d35565b91507f4552433732313a20746f6b656e20616c7265616479206d696e746564000000006000830152602082019050919050565b60006123f8602483612d35565b91507f4552433732313a207472616e7366657220746f20746865207a65726f2061646460008301527f72657373000000000000000000000000000000000000000000000000000000006020830152604082019050919050565b600061245e601983612d35565b91507f4552433732313a20617070726f766520746f2063616c6c6572000000000000006000830152602082019050919050565b600061249e601e83612d35565b91507f536166654d6174683a207375627472616374696f6e206f766572666c6f7700006000830152602082019050919050565b60006124de602c83612d35565b91507f4552433732313a206f70657261746f7220717565727920666f72206e6f6e657860008301527f697374656e7420746f6b656e00000000000000000000000000000000000000006020830152604082019050919050565b6000612544603883612d35565b91507f4552433732313a20617070726f76652063616c6c6572206973206e6f74206f7760008301527f6e6572206e6f7220617070726f76656420666f7220616c6c00000000000000006020830152604082019050919050565b60006125aa602a83612d35565b91507f4552433732313a2062616c616e636520717565727920666f7220746865207a6560008301527f726f2061646472657373000000000000000000000000000000000000000000006020830152604082019050919050565b6000612610602983612d35565b91507f4552433732313a206f776e657220717565727920666f72206e6f6e657869737460008301527f656e7420746f6b656e00000000000000000000000000000000000000000000006020830152604082019050919050565b6000612676602083612d35565b91507f4552433732313a206d696e7420746f20746865207a65726f20616464726573736000830152602082019050919050565b60006126b6602c83612d35565b91507f4552433732313a20617070726f76656420717565727920666f72206e6f6e657860008301527f697374656e7420746f6b656e00000000000000000000000000000000000000006020830152604082019050919050565b600061271c602983612d35565b91507f4552433732313a207472616e73666572206f6620746f6b656e2074686174206960008301527f73206e6f74206f776e00000000000000000000000000000000000000000000006020830152604082019050919050565b6000612782602f83612d35565b91507f4552433732314d657461646174613a2055524920717565727920666f72206e6f60008301527f6e6578697374656e7420746f6b656e00000000000000000000000000000000006020830152604082019050919050565b60006127e8602183612d35565b91507f4552433732313a20617070726f76616c20746f2063757272656e74206f776e6560008301527f72000000000000000000000000000000000000000000000000000000000000006020830152604082019050919050565b600061284e603183612d35565b91507f4552433732313a207472616e736665722063616c6c6572206973206e6f74206f60008301527f776e6572206e6f7220617070726f7665640000000000000000000000000000006020830152604082019050919050565b60006128b4602c83612d35565b91507f455243373231456e756d657261626c653a20676c6f62616c20696e646578206f60008301527f7574206f6620626f756e647300000000000000000000000000000000000000006020830152604082019050919050565b61291681612dbb565b82525050565b60006129288284612275565b915081905092915050565b60006020820190506129486000830184612170565b92915050565b60006080820190506129636000830187612161565b6129706020830186612170565b61297d604083018561290d565b818103606083015261298f8184612203565b905095945050505050565b600060208201905081810360008301526129b4818461217f565b905092915050565b60006020820190506129d160008301846121f4565b92915050565b600060208201905081810360008301526129f1818461223c565b905092915050565b60006020820190508181036000830152612a12816122df565b9050919050565b60006020820190508181036000830152612a3281612345565b9050919050565b60006020820190508181036000830152612a52816123ab565b9050919050565b60006020820190508181036000830152612a72816123eb565b9050919050565b60006020820190508181036000830152612a9281612451565b9050919050565b60006020820190508181036000830152612ab281612491565b9050919050565b60006020820190508181036000830152612ad2816124d1565b9050919050565b60006020820190508181036000830152612af281612537565b9050919050565b60006020820190508181036000830152612b128161259d565b9050919050565b60006020820190508181036000830152612b3281612603565b9050919050565b60006020820190508181036000830152612b5281612669565b9050919050565b60006020820190508181036000830152612b72816126a9565b9050919050565b60006020820190508181036000830152612b928161270f565b9050919050565b60006020820190508181036000830152612bb281612775565b9050919050565b60006020820190508181036000830152612bd2816127db565b9050919050565b60006020820190508181036000830152612bf281612841565b9050919050565b60006020820190508181036000830152612c12816128a7565b9050919050565b6000602082019050612c2e600083018461290d565b92915050565b6000604051905081810181811067ffffffffffffffff82111715612c5757600080fd5b8060405250919050565b600067ffffffffffffffff821115612c7857600080fd5b601f19601f8301169050602081019050919050565b600067ffffffffffffffff821115612ca457600080fd5b601f19601f8301169050602081019050919050565b6000819050602082019050919050565b600081519050919050565b600081519050919050565b600081519050919050565b600081519050919050565b6000602082019050919050565b600082825260208201905092915050565b600082825260208201905092915050565b600082825260208201905092915050565b600082825260208201905092915050565b600081905092915050565b6000612d5c82612d9b565b9050919050565b60008115159050919050565b60007fffffffff0000000000000000000000000000000000000000000000000000000082169050919050565b600073ffffffffffffffffffffffffffffffffffffffff82169050919050565b6000819050919050565b6000612dd082612dd7565b9050919050565b6000612de282612de9565b9050919050565b6000612df482612d9b565b9050919050565b82818337600083830152505050565b60005b83811015612e28578082015181840152602081019050612e0d565b83811115612e37576000848401525b50505050565b6000601f19601f8301169050919050565b612e5781612d51565b8114612e6257600080fd5b50565b612e6e81612d63565b8114612e7957600080fd5b50565b612e8581612d6f565b8114612e9057600080fd5b50565b612e9c81612dbb565b8114612ea757600080fd5b5056fea365627a7a723158206c8911488e9d76966e2cc850adf3b62d3e93d3d69d4b4216ac5a331ab0776cd26c6578706572696d656e74616cf564736f6c63430005100040",
  "source": "pragma solidity >=0.4.21 <0.6.0;\npragma experimental ABIEncoderV2;\n\nimport \"./ERC721Full.sol\";\n\ncontract FileStorage is ERC721Full {\n    string[] private files;\n    mapping(string => bool) _fileAlreadyExists;\n\n    constructor() public ERC721Full(\"FileStorage\", \"FILESTORAGE\") {}\n\n    function mint(string memory _file) public {\n        require(!_fileAlreadyExists[_file]);\n        uint256 _id = (files.push(_file)) -1;\n        _mint(msg.sender, _id);\n        _fileAlreadyExists[_file] = true;\n    }\n\n    function retrieve(uint256 _tokenId) public view returns (string memory) {\n    string memory file = files[_tokenId];\n    return (file);\n    }\n\n    function retrieveByAddress(address _owner) public view returns (string[] memory) {\n      string[] memory tokens = new string[](balanceOf(_owner));\n      uint i = 0;\n      for (uint j = 0; j < files.length; j++) {\n        address k = ownerOf(j);\n        if (k == _owner) {\n            tokens[i] = files[j];\n            i++;\n        }\n    }\n    return tokens;\n    }\n\n    function getFiles() public view returns (string[] memory) {\n      return files;\n    }\n}",
  "sourcePath": "/Users/jota/Documents/Spacedev/ASERT/DecentralizedFileStorage /storj-file-storage-poc/src/contracts/FIleStorage.sol",
  "compiler": {
    "name": "solc",
    "version": "0.5.16+commit.9c3226ce.Emscripten.clang"
  },
  "schemaVersion": "3.4.11",
  "updatedAt": "2023-01-31T19:05:46.907Z",
  "networkType": "ethereum",
  "devdoc": {
    "methods": {
      "approve(address,uint256)": {
        "details": "Approves another address to transfer the given token ID The zero address indicates there is no approved address. There can only be one approved address per token at a given time. Can only be called by the token owner or an approved operator.",
        "params": {
          "to": "address to be approved for the given token ID",
          "tokenId": "uint256 ID of the token to be approved"
        }
      },
      "balanceOf(address)": {
        "details": "Gets the balance of the specified address.",
        "params": {
          "owner": "address to query the balance of"
        },
        "return": "uint256 representing the amount owned by the passed address"
      },
      "getApproved(uint256)": {
        "details": "Gets the approved address for a token ID, or zero if no address set Reverts if the token ID does not exist.",
        "params": {
          "tokenId": "uint256 ID of the token to query the approval of"
        },
        "return": "address currently approved for the given token ID"
      },
      "isApprovedForAll(address,address)": {
        "details": "Tells whether an operator is approved by a given owner.",
        "params": {
          "operator": "operator address which you want to query the approval of",
          "owner": "owner address which you want to query the approval of"
        },
        "return": "bool whether the given operator is approved by the given owner"
      },
      "name()": {
        "details": "Gets the token name.",
        "return": "string representing the token name"
      },
      "ownerOf(uint256)": {
        "details": "Gets the owner of the specified token ID.",
        "params": {
          "tokenId": "uint256 ID of the token to query the owner of"
        },
        "return": "address currently marked as the owner of the given token ID"
      },
      "safeTransferFrom(address,address,uint256)": {
        "details": "Safely transfers the ownership of a given token ID to another address If the target address is a contract, it must implement `onERC721Received`, which is called upon a safe transfer, and return the magic value `bytes4(keccak256(\"onERC721Received(address,address,uint256,bytes)\"))`; otherwise, the transfer is reverted. Requires the msg.sender to be the owner, approved, or operator",
        "params": {
          "from": "current owner of the token",
          "to": "address to receive the ownership of the given token ID",
          "tokenId": "uint256 ID of the token to be transferred"
        }
      },
      "safeTransferFrom(address,address,uint256,bytes)": {
        "details": "Safely transfers the ownership of a given token ID to another address If the target address is a contract, it must implement `onERC721Received`, which is called upon a safe transfer, and return the magic value `bytes4(keccak256(\"onERC721Received(address,address,uint256,bytes)\"))`; otherwise, the transfer is reverted. Requires the msg.sender to be the owner, approved, or operator",
        "params": {
          "_data": "bytes data to send along with a safe transfer check",
          "from": "current owner of the token",
          "to": "address to receive the ownership of the given token ID",
          "tokenId": "uint256 ID of the token to be transferred"
        }
      },
      "setApprovalForAll(address,bool)": {
        "details": "Sets or unsets the approval of a given operator An operator is allowed to transfer all tokens of the sender on their behalf.",
        "params": {
          "approved": "representing the status of the approval to be set",
          "to": "operator address to set the approval"
        }
      },
      "supportsInterface(bytes4)": {
        "details": "See `IERC165.supportsInterface`.     * Time complexity O(1), guaranteed to always use less than 30 000 gas."
      },
      "symbol()": {
        "details": "Gets the token symbol.",
        "return": "string representing the token symbol"
      },
      "tokenByIndex(uint256)": {
        "details": "Gets the token ID at a given index of all the tokens in this contract Reverts if the index is greater or equal to the total number of tokens.",
        "params": {
          "index": "uint256 representing the index to be accessed of the tokens list"
        },
        "return": "uint256 token ID at the given index of the tokens list"
      },
      "tokenOfOwnerByIndex(address,uint256)": {
        "details": "Gets the token ID at a given index of the tokens list of the requested owner.",
        "params": {
          "index": "uint256 representing the index to be accessed of the requested tokens list",
          "owner": "address owning the tokens list to be accessed"
        },
        "return": "uint256 token ID at the given index of the tokens list owned by the requested address"
      },
      "tokenURI(uint256)": {
        "details": "Returns an URI for a given token ID. Throws if the token ID does not exist. May return an empty string.",
        "params": {
          "tokenId": "uint256 ID of the token to query"
        }
      },
      "totalSupply()": {
        "details": "Gets the total amount of tokens stored by the contract.",
        "return": "uint256 representing the total amount of tokens"
      },
      "transferFrom(address,address,uint256)": {
        "details": "Transfers the ownership of a given token ID to another address. Usage of this method is discouraged, use `safeTransferFrom` whenever possible. Requires the msg.sender to be the owner, approved, or operator.",
        "params": {
          "from": "current owner of the token",
          "to": "address to receive the ownership of the given token ID",
          "tokenId": "uint256 ID of the token to be transferred"
        }
      }
    }
  },
  "userdoc": {
    "methods": {}
  }
}